{
  "address": "0xA3410F89bD9AF9858100062123717d2b21e31e53",
  "abi": [
    {
      "inputs": [
        {
          "internalType": "address",
          "name": "wToken_",
          "type": "address"
        }
      ],
      "stateMutability": "nonpayable",
      "type": "constructor"
    },
    {
      "inputs": [
        {
          "internalType": "uint256",
          "name": "sent",
          "type": "uint256"
        },
        {
          "internalType": "uint256",
          "name": "required",
          "type": "uint256"
        }
      ],
      "name": "InvalidValueSent",
      "type": "error"
    },
    {
      "inputs": [
        {
          "internalType": "address",
          "name": "recipient",
          "type": "address"
        },
        {
          "internalType": "address",
          "name": "gateway",
          "type": "address"
        }
      ],
      "name": "RecipientNotGateway",
      "type": "error"
    },
    {
      "inputs": [],
      "name": "ZeroRecipientAddress",
      "type": "error"
    },
    {
      "inputs": [
        {
          "internalType": "address",
          "name": "pool",
          "type": "address"
        },
        {
          "components": [
            {
              "components": [
                {
                  "internalType": "uint256[2]",
                  "name": "a",
                  "type": "uint256[2]"
                },
                {
                  "internalType": "uint256[2][2]",
                  "name": "b",
                  "type": "uint256[2][2]"
                },
                {
                  "internalType": "uint256[2]",
                  "name": "c",
                  "type": "uint256[2]"
                }
              ],
              "internalType": "struct Proof",
              "name": "proof",
              "type": "tuple"
            },
            {
              "internalType": "bytes32",
              "name": "root",
              "type": "bytes32"
            },
            {
              "internalType": "bytes32[]",
              "name": "inputNullifiers",
              "type": "bytes32[]"
            },
            {
              "internalType": "bytes32[2]",
              "name": "outputCommitments",
              "type": "bytes32[2]"
            },
            {
              "internalType": "uint256",
              "name": "publicAmount",
              "type": "uint256"
            },
            {
              "internalType": "bytes32",
              "name": "extDataHash",
              "type": "bytes32"
            }
          ],
          "internalType": "struct ProofArgs",
          "name": "args",
          "type": "tuple"
        },
        {
          "components": [
            {
              "internalType": "address",
              "name": "recipient",
              "type": "address"
            },
            {
              "internalType": "uint256",
              "name": "amount",
              "type": "uint256"
            },
            {
              "internalType": "address",
              "name": "relayer",
              "type": "address"
            },
            {
              "internalType": "uint256",
              "name": "fee",
              "type": "uint256"
            },
            {
              "internalType": "bytes",
              "name": "encryptedOutput1",
              "type": "bytes"
            },
            {
              "internalType": "bytes",
              "name": "encryptedOutput2",
              "type": "bytes"
            }
          ],
          "internalType": "struct ExtData",
          "name": "extData",
          "type": "tuple"
        }
      ],
      "name": "deposit",
      "outputs": [],
      "stateMutability": "payable",
      "type": "function"
    },
    {
      "inputs": [],
      "name": "wToken",
      "outputs": [
        {
          "internalType": "contract IWToken",
          "name": "",
          "type": "address"
        }
      ],
      "stateMutability": "view",
      "type": "function"
    },
    {
      "inputs": [
        {
          "internalType": "address",
          "name": "pool",
          "type": "address"
        },
        {
          "internalType": "address",
          "name": "unwrappedTokenReceiver",
          "type": "address"
        },
        {
          "components": [
            {
              "components": [
                {
                  "internalType": "uint256[2]",
                  "name": "a",
                  "type": "uint256[2]"
                },
                {
                  "internalType": "uint256[2][2]",
                  "name": "b",
                  "type": "uint256[2][2]"
                },
                {
                  "internalType": "uint256[2]",
                  "name": "c",
                  "type": "uint256[2]"
                }
              ],
              "internalType": "struct Proof",
              "name": "proof",
              "type": "tuple"
            },
            {
              "internalType": "bytes32",
              "name": "root",
              "type": "bytes32"
            },
            {
              "internalType": "bytes32[]",
              "name": "inputNullifiers",
              "type": "bytes32[]"
            },
            {
              "internalType": "bytes32[2]",
              "name": "outputCommitments",
              "type": "bytes32[2]"
            },
            {
              "internalType": "uint256",
              "name": "publicAmount",
              "type": "uint256"
            },
            {
              "internalType": "bytes32",
              "name": "extDataHash",
              "type": "bytes32"
            }
          ],
          "internalType": "struct ProofArgs",
          "name": "args",
          "type": "tuple"
        },
        {
          "components": [
            {
              "internalType": "address",
              "name": "recipient",
              "type": "address"
            },
            {
              "internalType": "uint256",
              "name": "amount",
              "type": "uint256"
            },
            {
              "internalType": "address",
              "name": "relayer",
              "type": "address"
            },
            {
              "internalType": "uint256",
              "name": "fee",
              "type": "uint256"
            },
            {
              "internalType": "bytes",
              "name": "encryptedOutput1",
              "type": "bytes"
            },
            {
              "internalType": "bytes",
              "name": "encryptedOutput2",
              "type": "bytes"
            }
          ],
          "internalType": "struct ExtData",
          "name": "extData",
          "type": "tuple"
        }
      ],
      "name": "withdraw",
      "outputs": [],
      "stateMutability": "nonpayable",
      "type": "function"
    },
    {
      "stateMutability": "payable",
      "type": "receive"
    }
  ],
  "transactionHash": "0x69488360337eaa1e3818aa637c52c10fab3b9d58819067b92880c9e086d7f0df",
  "args": [
    "0x8D08ac9a511581C7e5BDf8CEd27b7353d0EB7e40"
  ],
  "numDeployments": 1,
  "solcInputHash": "6274893e2403d7be0b7c5214fecfbfff",
  "bytecode": "0x60a06040523480156200001157600080fd5b50604051620012d2380380620012d28339818101604052810190620000379190620000dc565b8073ffffffffffffffffffffffffffffffffffffffff1660808173ffffffffffffffffffffffffffffffffffffffff1681525050506200010e565b600080fd5b600073ffffffffffffffffffffffffffffffffffffffff82169050919050565b6000620000a48262000077565b9050919050565b620000b68162000097565b8114620000c257600080fd5b50565b600081519050620000d681620000ab565b92915050565b600060208284031215620000f557620000f462000072565b5b60006200010584828501620000c5565b91505092915050565b6080516111856200014d6000396000818161023401528181610270015281816102f30152818161038f01528181610401015261048601526111856000f3fe6080604052600436106100385760003560e01c8063078c4830146100445780630babd8641461006d5780635e9de659146100985761003f565b3661003f57005b600080fd5b34801561005057600080fd5b5061006b60048036038101906100669190610757565b6100b4565b005b34801561007957600080fd5b5061008261038d565b60405161008f9190610855565b60405180910390f35b6100b260048036038101906100ad9190610870565b6103b1565b005b3073ffffffffffffffffffffffffffffffffffffffff168160000160208101906100de91906108fb565b73ffffffffffffffffffffffffffffffffffffffff161461014a5780600001602081019061010c91906108fb565b306040517fb52905ef000000000000000000000000000000000000000000000000000000008152600401610141929190610937565b60405180910390fd5b600073ffffffffffffffffffffffffffffffffffffffff168373ffffffffffffffffffffffffffffffffffffffff16036101b0576040517fceef985700000000000000000000000000000000000000000000000000000000815260040160405180910390fd5b60008473ffffffffffffffffffffffffffffffffffffffff16636c3bc78584846040518363ffffffff1660e01b81526004016101ed929190610ec1565b6020604051808303816000875af115801561020c573d6000803e3d6000fd5b505050506040513d601f19601f820116820180604052508101906102309190610f0d565b90507f000000000000000000000000000000000000000000000000000000000000000073ffffffffffffffffffffffffffffffffffffffff1663095ea7b37f0000000000000000000000000000000000000000000000000000000000000000836040518363ffffffff1660e01b81526004016102ad929190610f49565b6020604051808303816000875af11580156102cc573d6000803e3d6000fd5b505050506040513d601f19601f820116820180604052508101906102f09190610faa565b507f000000000000000000000000000000000000000000000000000000000000000073ffffffffffffffffffffffffffffffffffffffff16632e1a7d4d826040518263ffffffff1660e01b815260040161034a9190610fd7565b600060405180830381600087803b15801561036457600080fd5b505af1158015610378573d6000803e3d6000fd5b5050505061038684826105ab565b5050505050565b7f000000000000000000000000000000000000000000000000000000000000000081565b806020013534146103ff573481602001356040517f71d5abb30000000000000000000000000000000000000000000000000000000081526004016103f6929190610ff2565b60405180910390fd5b7f000000000000000000000000000000000000000000000000000000000000000073ffffffffffffffffffffffffffffffffffffffff1663d0e30db082602001356040518263ffffffff1660e01b81526004016000604051808303818588803b15801561046b57600080fd5b505af115801561047f573d6000803e3d6000fd5b50505050507f000000000000000000000000000000000000000000000000000000000000000073ffffffffffffffffffffffffffffffffffffffff1663095ea7b38483602001356040518363ffffffff1660e01b81526004016104e3929190610f49565b6020604051808303816000875af1158015610502573d6000803e3d6000fd5b505050506040513d601f19601f820116820180604052508101906105269190610faa565b508273ffffffffffffffffffffffffffffffffffffffff1663ac79e30183836040518363ffffffff1660e01b8152600401610562929190610ec1565b6020604051808303816000875af1158015610581573d6000803e3d6000fd5b505050506040513d601f19601f820116820180604052508101906105a59190610f0d565b50505050565b60008273ffffffffffffffffffffffffffffffffffffffff1682600067ffffffffffffffff8111156105e0576105df61101b565b5b6040519080825280601f01601f1916602001820160405280156106125781602001600182028036833780820191505090505b5060405161062091906110bb565b60006040518083038185875af1925050503d806000811461065d576040519150601f19603f3d011682016040523d82523d6000602084013e610662565b606091505b50509050806106a6576040517f08c379a000000000000000000000000000000000000000000000000000000000815260040161069d9061112f565b60405180910390fd5b505050565b600080fd5b600080fd5b600073ffffffffffffffffffffffffffffffffffffffff82169050919050565b60006106e0826106b5565b9050919050565b6106f0816106d5565b81146106fb57600080fd5b50565b60008135905061070d816106e7565b92915050565b600080fd5b60006101c0828403121561072f5761072e610713565b5b81905092915050565b600060c0828403121561074e5761074d610713565b5b81905092915050565b60008060008060808587031215610771576107706106ab565b5b600061077f878288016106fe565b9450506020610790878288016106fe565b935050604085013567ffffffffffffffff8111156107b1576107b06106b0565b5b6107bd87828801610718565b925050606085013567ffffffffffffffff8111156107de576107dd6106b0565b5b6107ea87828801610738565b91505092959194509250565b6000819050919050565b600061081b610816610811846106b5565b6107f6565b6106b5565b9050919050565b600061082d82610800565b9050919050565b600061083f82610822565b9050919050565b61084f81610834565b82525050565b600060208201905061086a6000830184610846565b92915050565b600080600060608486031215610889576108886106ab565b5b6000610897868287016106fe565b935050602084013567ffffffffffffffff8111156108b8576108b76106b0565b5b6108c486828701610718565b925050604084013567ffffffffffffffff8111156108e5576108e46106b0565b5b6108f186828701610738565b9150509250925092565b600060208284031215610911576109106106ab565b5b600061091f848285016106fe565b91505092915050565b610931816106d5565b82525050565b600060408201905061094c6000830185610928565b6109596020830184610928565b9392505050565b600082905092915050565b600082905092915050565b82818337505050565b61098b60408383610976565b5050565b600082905092915050565b600060029050919050565b600081905092915050565b6000819050919050565b60006109c6838361097f565b60408301905092915050565b6000604082019050919050565b6109e88161099a565b6109f281846109a5565b92506109fd826109b0565b8060005b83811015610a3657610a13828461096b565b610a1d87826109ba565b9650610a28836109d2565b925050600181019050610a01565b505050505050565b6101008201610a50600083018361096b565b610a5d600085018261097f565b50610a6b604083018361098f565b610a7860408501826109df565b50610a8660c083018361096b565b610a9360c085018261097f565b50505050565b6000819050919050565b610aac81610a99565b8114610ab757600080fd5b50565b600081359050610ac981610aa3565b92915050565b6000610ade6020840184610aba565b905092915050565b610aef81610a99565b82525050565b600080fd5b600080fd5b600080fd5b60008083356001602003843603038112610b2157610b20610aff565b5b83810192508235915060208301925067ffffffffffffffff821115610b4957610b48610af5565b5b602082023603831315610b5f57610b5e610afa565b5b509250929050565b600082825260208201905092915050565b600080fd5b6000610b898385610b67565b93507f07ffffffffffffffffffffffffffffffffffffffffffffffffffffffffffffff831115610bbc57610bbb610b78565b5b602083029250610bcd838584610976565b82840190509392505050565b600082905092915050565b610bf060408383610976565b5050565b6000819050919050565b610c0781610bf4565b8114610c1257600080fd5b50565b600081359050610c2481610bfe565b92915050565b6000610c396020840184610c15565b905092915050565b610c4a81610bf4565b82525050565b60006101c08301610c646000840184610960565b610c716000860182610a3e565b50610c80610100840184610acf565b610c8e610100860182610ae6565b50610c9d610120840184610b04565b858303610120870152610cb1838284610b7d565b92505050610cc3610140840184610bd9565b610cd1610140860182610be4565b50610ce0610180840184610c2a565b610cee610180860182610c41565b50610cfd6101a0840184610acf565b610d0b6101a0860182610ae6565b508091505092915050565b6000610d2560208401846106fe565b905092915050565b610d36816106d5565b82525050565b60008083356001602003843603038112610d5957610d58610aff565b5b83810192508235915060208301925067ffffffffffffffff821115610d8157610d80610af5565b5b600182023603831315610d9757610d96610afa565b5b509250929050565b600082825260208201905092915050565b82818337600083830152505050565b6000601f19601f8301169050919050565b6000610ddc8385610d9f565b9350610de9838584610db0565b610df283610dbf565b840190509392505050565b600060c08301610e106000840184610d16565b610e1d6000860182610d2d565b50610e2b6020840184610c2a565b610e386020860182610c41565b50610e466040840184610d16565b610e536040860182610d2d565b50610e616060840184610c2a565b610e6e6060860182610c41565b50610e7c6080840184610d3c565b8583036080870152610e8f838284610dd0565b92505050610ea060a0840184610d3c565b85830360a0870152610eb3838284610dd0565b925050508091505092915050565b60006040820190508181036000830152610edb8185610c50565b90508181036020830152610eef8184610dfd565b90509392505050565b600081519050610f0781610bfe565b92915050565b600060208284031215610f2357610f226106ab565b5b6000610f3184828501610ef8565b91505092915050565b610f4381610bf4565b82525050565b6000604082019050610f5e6000830185610928565b610f6b6020830184610f3a565b9392505050565b60008115159050919050565b610f8781610f72565b8114610f9257600080fd5b50565b600081519050610fa481610f7e565b92915050565b600060208284031215610fc057610fbf6106ab565b5b6000610fce84828501610f95565b91505092915050565b6000602082019050610fec6000830184610f3a565b92915050565b60006040820190506110076000830185610f3a565b6110146020830184610f3a565b9392505050565b7f4e487b7100000000000000000000000000000000000000000000000000000000600052604160045260246000fd5b600081519050919050565b600081905092915050565b60005b8381101561107e578082015181840152602081019050611063565b60008484015250505050565b60006110958261104a565b61109f8185611055565b93506110af818560208601611060565b80840191505092915050565b60006110c7828461108a565b915081905092915050565b600082825260208201905092915050565b7f4554485f5452414e534645525f4641494c454400000000000000000000000000600082015250565b60006111196013836110d2565b9150611124826110e3565b602082019050919050565b600060208201905081810360008301526111488161110c565b905091905056fea26469706673582212203a5de9a2937bd2bfb5f619874fd0f60d301821d6c15ea8f4b06923ddecf8f88e64736f6c63430008110033",
  "devdoc": {
    "kind": "dev",
    "methods": {},
    "version": 1
  },
  "userdoc": {
    "kind": "user",
    "methods": {},
    "version": 1
  },
  "storageLayout": {
    "storage": [],
    "types": null
  }
}